{
  "contractName": "IpfsFileUpload",
  "abi": [
    {
      "inputs": [
        {
          "internalType": "string",
          "name": "_ipfsHash",
          "type": "string"
        },
        {
          "internalType": "string",
          "name": "_fileName",
          "type": "string"
        },
        {
          "internalType": "string",
          "name": "_fileType",
          "type": "string"
        },
        {
          "internalType": "uint256",
          "name": "_fileDate",
          "type": "uint256"
        }
      ],
      "name": "add",
      "outputs": [],
      "stateMutability": "nonpayable",
      "type": "function"
    },
    {
      "inputs": [
        {
          "internalType": "uint256",
          "name": "_index",
          "type": "uint256"
        }
      ],
      "name": "getFile",
      "outputs": [
        {
          "internalType": "string",
          "name": "",
          "type": "string"
        },
        {
          "internalType": "string",
          "name": "",
          "type": "string"
        },
        {
          "internalType": "string",
          "name": "",
          "type": "string"
        },
        {
          "internalType": "uint256",
          "name": "",
          "type": "uint256"
        }
      ],
      "stateMutability": "view",
      "type": "function"
    },
    {
      "inputs": [],
      "name": "getLength",
      "outputs": [
        {
          "internalType": "uint256",
          "name": "",
          "type": "uint256"
        }
      ],
      "stateMutability": "view",
      "type": "function"
    }
  ],
  "bytecode": "0x608060405234801561001057600080fd5b50610931806100206000396000f3fe608060405234801561001057600080fd5b50600436106100415760003560e01c80632bfda313146100465780633f647a9714610079578063be1c766b14610095575b600080fd5b610060600480360381019061005b9190610531565b6100b3565b6040516100709493929190610606565b60405180910390f35b610093600480360381019061008e9190610795565b61030a565b005b61009d6103fb565b6040516100aa9190610850565b60405180910390f35b60608060606000806000803373ffffffffffffffffffffffffffffffffffffffff1673ffffffffffffffffffffffffffffffffffffffff168152602001908152602001600020868154811061010b5761010a61086b565b5b9060005260206000209060040201604051806080016040529081600082018054610134906108c9565b80601f0160208091040260200160405190810160405280929190818152602001828054610160906108c9565b80156101ad5780601f10610182576101008083540402835291602001916101ad565b820191906000526020600020905b81548152906001019060200180831161019057829003601f168201915b505050505081526020016001820180546101c6906108c9565b80601f01602080910402602001604051908101604052809291908181526020018280546101f2906108c9565b801561023f5780601f106102145761010080835404028352916020019161023f565b820191906000526020600020905b81548152906001019060200180831161022257829003601f168201915b50505050508152602001600282018054610258906108c9565b80601f0160208091040260200160405190810160405280929190818152602001828054610284906108c9565b80156102d15780601f106102a6576101008083540402835291602001916102d1565b820191906000526020600020905b8154815290600101906020018083116102b457829003601f168201915b50505050508152602001600382015481525050905080600001518160200151826040015183606001519450945094509450509193509193565b6000803373ffffffffffffffffffffffffffffffffffffffff1673ffffffffffffffffffffffffffffffffffffffff168152602001908152602001600020604051806080016040528086815260200185815260200184815260200183815250908060018154018082558091505060019003906000526020600020906004020160009091909190915060008201518160000190805190602001906103ae929190610444565b5060208201518160010190805190602001906103cb929190610444565b5060408201518160020190805190602001906103e8929190610444565b5060608201518160030155505050505050565b60008060003373ffffffffffffffffffffffffffffffffffffffff1673ffffffffffffffffffffffffffffffffffffffff16815260200190815260200160002080549050905090565b828054610450906108c9565b90600052602060002090601f01602090048101928261047257600085556104b9565b82601f1061048b57805160ff19168380011785556104b9565b828001600101855582156104b9579182015b828111156104b857825182559160200191906001019061049d565b5b5090506104c691906104ca565b5090565b5b808211156104e35760008160009055506001016104cb565b5090565b6000604051905090565b600080fd5b600080fd5b6000819050919050565b61050e816104fb565b811461051957600080fd5b50565b60008135905061052b81610505565b92915050565b600060208284031215610547576105466104f1565b5b60006105558482850161051c565b91505092915050565b600081519050919050565b600082825260208201905092915050565b60005b8381101561059857808201518184015260208101905061057d565b838111156105a7576000848401525b50505050565b6000601f19601f8301169050919050565b60006105c98261055e565b6105d38185610569565b93506105e381856020860161057a565b6105ec816105ad565b840191505092915050565b610600816104fb565b82525050565b6000608082019050818103600083015261062081876105be565b9050818103602083015261063481866105be565b9050818103604083015261064881856105be565b905061065760608301846105f7565b95945050505050565b600080fd5b600080fd5b7f4e487b7100000000000000000000000000000000000000000000000000000000600052604160045260246000fd5b6106a2826105ad565b810181811067ffffffffffffffff821117156106c1576106c061066a565b5b80604052505050565b60006106d46104e7565b90506106e08282610699565b919050565b600067ffffffffffffffff821115610700576106ff61066a565b5b610709826105ad565b9050602081019050919050565b82818337600083830152505050565b6000610738610733846106e5565b6106ca565b90508281526020810184848401111561075457610753610665565b5b61075f848285610716565b509392505050565b600082601f83011261077c5761077b610660565b5b813561078c848260208601610725565b91505092915050565b600080600080608085870312156107af576107ae6104f1565b5b600085013567ffffffffffffffff8111156107cd576107cc6104f6565b5b6107d987828801610767565b945050602085013567ffffffffffffffff8111156107fa576107f96104f6565b5b61080687828801610767565b935050604085013567ffffffffffffffff811115610827576108266104f6565b5b61083387828801610767565b92505060606108448782880161051c565b91505092959194509250565b600060208201905061086560008301846105f7565b92915050565b7f4e487b7100000000000000000000000000000000000000000000000000000000600052603260045260246000fd5b7f4e487b7100000000000000000000000000000000000000000000000000000000600052602260045260246000fd5b600060028204905060018216806108e157607f821691505b602082108114156108f5576108f461089a565b5b5091905056fea26469706673582212206c3daba63377bdbce3404489d7ebc640739e5e6b4960f30d39b07ad0cf38a25864736f6c634300080b0033",
  "immutableReferences": {},
  "source": "// SPDX-License-Identifier: MIT\npragma solidity >=0.4.22 <0.9.0;\n// pragma solidity ^0.8.11;\n\ncontract IpfsFileUpload {\n\tstruct File {\n\t\tstring ipfsHash;\n\t\tstring fileName;\n\t\tstring fileType;\n\t\tuint fileDate;\n\t}\n\n\tmapping(address => File[]) files;\n\n\tfunction add(string memory _ipfsHash, string memory _fileName, \n\t\tstring memory _fileType, uint _fileDate) public {\n\t\tfiles[msg.sender].push(File({ipfsHash: _ipfsHash, fileName: _fileName,\n\t\t\t\t\t\t\t\t\t\tfileType: _fileType, fileDate: _fileDate\n\t\t\t\t\t\t\t\t\t}));\n\t}\n\n\tfunction getFile(uint _index) public view returns(string memory, string memory, string memory, uint) {\n\t\tFile memory file = files[msg.sender][_index];\n\t\treturn (file.ipfsHash, file.fileName, file.fileType, file.fileDate);\n\t}\n\n\tfunction getLength() public view returns(uint) {\n\t\treturn files[msg.sender].length;\n\t}\n}",
  "sourcePath": "/mnt/c/Users/Vikash/Documents/vikash/interview/blockchain/seven_bits/task/eth_ipfs_file_upload/contracts/IPFSFileUpload.sol",
  "compiler": {
    "name": "solc",
    "version": "0.8.11+commit.d7f03943.Emscripten.clang"
  },
  "schemaVersion": "3.4.4",
  "updatedAt": "2022-02-04T18:48:18.987Z",
  "devdoc": {
    "kind": "dev",
    "methods": {},
    "version": 1
  },
  "userdoc": {
    "kind": "user",
    "methods": {},
    "version": 1
  }
}